:020000040800F2
:10000000804D00206D0200086D03000869030008A0
:100010006B030008FD020008210400080000000036
:10002000000000000000000000000000AD0100081A
:10003000FF0200080000000009020008ED030008AC
:10004000870200088702000887020008870200086C
:10005000870200088702000887020008870200085C
:10006000870200088702000887020008870200084C
:10007000870200088702000887020008870200083C
:1000800087020008870200088702000800000000BD
:1000900000000000000000000000000087020008CF
:1000A000870200088702000887020008870200080C
:1000B00087020008870200088702000887020008FC
:1000C00087020008870200088702000887020008EC
:1000D000870200088702000887020008000000006D
:1000E000870200088702000887020008000000005D
:1000F000000000000000000000000000870200086F
:10010000000000008702000887020008870200083C
:1001100000000000000000000000000000000000DF
:10012000870200088702000887020008870200088B
:10013000870200080000000000000000000000002E
:10014000000000000000000000000000870200081E
:10015000870200088702000887020008870200085B
:10016000870200088702000800000000000000006D
:10017000000000000000000000000000000000007F
:1001800000000000870200080000000000000000DE
:1001900087020008DFF810D000F09EF80048004702
:1001A00041040008AFF30080804D00202C4B1968FB
:1001B0000868B0E8F04F80F30988BFF36F8F4FF005
:1001C000000080F3118870470000000008480068B4
:1001D000006880F308884FF0000080F3148862B64E
:1001E00061B6BFF34F8FBFF36F8F00DF00BF00BF5B
:1001F00008ED00E0DFF80C00016841F470010160D7
:10020000704700BF88ED00E0EFF30980BFF36F8F08
:10021000134B1A681EF0100F08BF20ED108A20E95A
:10022000F04F106009B44FF0500080F31188BFF315
:100230004F8FBFF36F8F00F0B3FF4FF0000080F3DC
:10024000118809BC19680868B0E8F04F1EF0100F5B
:1002500008BFB0EC108A80F30988BFF36F8F704736
:1002600034000020EFF30580704700000648804707
:1002700006480047FEE7FEE7FEE7FEE7FEE7FEE78B
:10028000FEE7FEE7FEE7FEE705040008950100082B
:1002900040EA01039B0703D009E008C9121F08C008
:1002A000042AFAD203E011F8013B00F8013B521E88
:1002B000F9D27047D2B201E000F8012B491EFBD2FF
:1002C00070470022F6E710B513460A460446194661
:1002D000FFF7F0FF204610BD064C074D06E0E06832
:1002E00040F0010394E8070098471034AC42F6D37D
:1002F000FFF754FF301E0008501E0008FEE770474D
:100300000025134CDFF84C802F464FF0FF390126B3
:10031000656166614946206A01F04AFA012808D001
:10032000E661C82000F040FEC820676100F03CFE96
:10033000EFE740466D1C67606D1C8542FCD30025CD
:1003400066602B462A462946206A01F087F8E8E7CE
:100350000000002060E31600024881680278114422
:100360008160704724000020FEE7FEE77047000030
:10037000044C206880F001002060322000F014FE60
:10038000F7E70000000000200025DFF858A0164C19
:100390004FF0FF3B4FF001082F4640F22629C4F8EA
:1003A000188046465946206A01F002FA012809D011
:1003B000E6614E46484600F0F7FD3046A76100F082
:1003C000F3FDECE750466D1C67606D1C8542FCD365
:1003D000002566602B462A462946206A01F03EF831
:1003E000E7E7000060E316000000002010B5FFF70B
:1003F000B3FF01F02BFB012803D0BDE8104000F053
:100400007BBF10BD0548016841F4700101600349DC
:100410004FF00060803908607047000088ED00E010
:10042000FEE702E008C8121F08C1002AFAD170478F
:100430007047002001E001C1121F002AFBD1704764
:100440001CB503220021012000F06CFF1449002399
:100450001A460862194601F001F8114901200C31D1
:10046000CDE900010023C8220EA1134801F096FA3D
:100470000B4802240830CDE900400023C8220FA118
:10048000124801F08BFA064800231030CDE90040F5
:10049000C8220FA1134801F081FA00F035FEFEE7F3
:1004A00000000020477265656E4C6564466C6173A0
:1004B000685461736B000000010300085265644CCE
:1004C0006564466C6173685461736B00890300084E
:1004D0004F72616E67654C6564466C617368546108
:1004E000736B0000710300082DE9F041134C0F46B7
:1004F000054666692068001D00F026FC681C07D1CF
:1005000037B12168BDE8F0410D48091D00F06CBC11
:1005100020683544B5424560216805D2A068BDE831
:10052000F041091D00F048BC6068091D00F044FC62
:10053000206B854200D22563BDE8F08134000020A5
:10054000980500202DE9F041054600F059FC2D4C9E
:100550002069401C206120682B4F10B1E06930B346
:100560002BE025602069012827D1002606EB8600B4
:1005700007EB800000F012FC761C382EF6D32348DF
:1005800000F00CFC2148143000F008FC1F48283013
:1005900000F004FC1D483C3000F000FC1B485030CB
:1005A00000F0FCFB194860601430A06005E0206892
:1005B000E96AC06A884200D82560E06A401CE062AF
:1005C0006864E86AA169884200D9A06100EB8000F4
:1005D00007EB8000291D00F007FC00F031FCE0690A
:1005E00000280CD02068E96AC06A884207D208490E
:1005F0004FF080500860BFF34F8FBFF36F8FBDE89F
:10060000F081000034000020E800002048050020B0
:1006100004ED00E038B500F0F3FB104CA068C8B959
:100620000F4800F0BBFB0E48143000F0B7FB0C483D
:100630002060143060600A4B00202833009003F1E2
:10064000500210210A2000F091FEA06010B105A117
:1006500000F074FCBDE8384000F0F2BB70000020F0
:10066000AC050020546D72510000000030B4026CE3
:100670000B46002A0BD0C1681144C1604468A142F6
:1006800001D30168C16030BC1846FFF701BE30BC21
:1006900070472DE9F041856B174604460026026C31
:1006A00082B1C7B1E068FFF7F3FDE168206C091A79
:1006B000E1602268914202D26168081AE060022F6C
:1006C00016D017E02068A8B9606801F037FA06462E
:1006D000002060600EE0A068FFF7DAFD216CA068E2
:1006E0000844A0606168884204D32068A06001E0EB
:1006F00005B16D1E6D1CA5633046BDE8F08110B5D7
:10070000044690F8590058B101280CD002280FD0A7
:10071000502080F31188BFF34F8FBFF36F8FFEE738
:10072000206B00F0A1FB2046BDE8104000F09CBB10
:1007300010BD000010484FF47051420706D0C01D94
:100740000D4920F00700411AC1F570510B4A0023F2
:100750000144C2E900030839103A21F00701116091
:100760004B600B600B1AC0E9001393604FF0004020
:100770005360D060704700007C0D00209400002082
:10078000144E154CA6F29C474FF08058DFF84C9061
:1007900012E000BF00F034FBF068C568281D00F0CF
:1007A000D3FA2069401E2061E068401EE06000F03E
:1007B00047FB2846FFF7A3FFE0680028EAD1386826
:1007C0000128F9D9C9F80080BFF34F8FBFF36F8FAD
:1007D000F2E70000840500203400002004ED00E072
:1007E00070B51D46049C51B1C4F80020C4E90F0146
:1007F0000121204600F0EEFD84F84C5070BD2460CD
:10080000F4E72DE9F0470E46DDE9098417468246F4
:1008100091009946089DA522206BFFF74BFD6FF0D4
:100820000301206B01EB8701084420F007077807DC
:1008300007D0502080F31188BFF34F8FBFF36F8F25
:10084000FEE72218315C82F83410315C11B1401C93
:100850001028F6D3002684F84360382D00D33725BE
:10086000E562C4E91356201D00F0A3FA04F1180054
:1008700000F09FFA2461C5F138006462A0616665EA
:1008800084F858604A465146384600F047FA2060DE
:10089000B8F1000F01D0C8F80040BDE8F0870000B3
:1008A00030B5114900E011460A688242FBD34B681B
:1008B0005C18844203D14068184448600846436885
:1008C0001C18944209D1084C103C2468A24209D05B
:1008D00052681A4442600A6812680260814200D07D
:1008E000086030BD0460F9E79400002070B5002472
:1008F00041600B4D0061914206D8D11A8269914244
:1009000006D2011D686807E09A4203D2994201D3DA
:10091000012403E0011D286800F04EFA204670BD56
:100920007000002010B5044600F06AFAA06B28B1F0
:100930005FF0000400F084FA204610BD0124F9E7BE
:1009400030B589B0304D55E00498002806DADDE96D
:100950000601059A9047049800284BDB069C6069C5
:1009600010B1201D00F0F0F902A800F0B9F802461D
:1009700004980A283ED2DFE800F00505053D263739
:1009800005053D260598A169034601442046FFF769
:10099000ADFF00B3616A20468847E069012829D18C
:1009A000002000900598A1690023421819462046AE
:1009B00001F00AFA78B9502080F31188BFF34F8F05
:1009C000BFF36F8FFEE70598A06128B18118134629
:1009D0002046FFF78BFF0DE0502080F31188BFF316
:1009E0004F8FBFF36F8FFEE794F82C0010B92046AD
:1009F00000F03AFA002204A9A86800F03DFE0028A1
:100A0000A2D109B030BD0000700000202DE9FC41EA
:100A10000F46054600F0BCFB01A800F061F8044653
:100A2000019818B101F03EF9BDE8FC81224EAFB14A
:100A300070680068A8B30027291B3A46B06800F028
:100A400091FA01F02FF90028EED11C494FF08050A7
:100A50000860BFF34F8FBFF36F8FE5E7A542EBD878
:100A600001F020F930682746C068C468201D00F0F6
:100A70006BF9E069012810D1A0692B4641193A466B
:100A80002046FFF733FF40B10020034601460090A7
:100A90002A46204601F098F920B1616A204688472D
:100AA000C2E707E0502080F31188BFF34F8FBFF3F8
:100AB0006F8FFEE70127BFE77000002004ED00E024
:100AC00006484168096829B14168C968C968496828
:100AD000016370474FF0FF31FAE700003400002057
:100AE00070B5054600F0C0FF064E044630698442EA
:100AF00003D200F009F8012000E000202860204621
:100B0000346170BD70000020F8B5194D1FE0C06859
:100B1000C4680668201D00F017F9616A20468847FE
:100B2000E069012813D1A0693044B04206D924619C
:100B30006060211D286800F03FF908E000200346AE
:100B4000014600903246204601F03EF938B128684F
:100B500001680029DBD16968C5E90010F8BD5020A3
:100B600080F31188BFF34F8FBFF36F8FFEE7000054
:100B70007000002008484068401C4FF0500080F38F
:100B8000118804D0BFF34F8FBFF36F8FFEE7BFF321
:100B90004F8FBFF36F8FFEE79C000020074C20684B
:100BA000016841B1C0680021D0F80000FFF72EFFB6
:100BB000FFF7C6FEF3E701210020F7E770000020F1
:100BC0002DE9F041044600F01BF994F9455004F179
:100BD000240609E0606A48B1304601F02BF808B1FC
:100BE00000F010FA6D1E6DB2002DF3DC4FF0FF36F1
:100BF00084F8456000F024F900F002F994F94450BB
:100C000004F1100709E0206948B1384601F012F8F4
:100C100008B100F0F7F96D1E6DB2002DF3DC84F819
:100C20004460BDE8F04100F00BB900002DE9F0414F
:100C30000546002700F0ACFA314E306808B9FFF7DE
:100C400079FDF06805424BD1C5B3083568070ED071
:100C500005F00700C0F108000544680707D05020E0
:100C600080F31188BFF34F8FBFF36F8FFEE72DB373
:100C70007068854234D82248103001460C6801E083
:100C800020460C466168A94202D221680029F7D1AA
:100C900031688C4224D00768216801606068083799
:100CA000411B10290FD96019420708D0502080F34A
:100CB0001188BFF34F8FBFF36F8FFEE710E04160E5
:100CC0006560FFF7EDFD61687068401A7060B2689A
:100CD000904200D2B060F06801430020C4E90001F6
:100CE00000F0E0FF780707D0502080F31188BFF3B1
:100CF0004F8FBFF36F8FFEE73846BDE8F0810000ED
:100D0000840000200449086818B10868026D521C6C
:100D100002650868704700003400002010B5031F0A
:100D20004FF080741C601B1F21F001011960191F16
:100D3000044B0B6014390A60091F6FF0020244383B
:100D40000A6010BD750B0008D0E9013201699A6094
:100D5000D0E901235A604A68824201D182684A6020
:100D6000002202610868401E0860086870470000A1
:100D7000034B036003F15C00086080201060704743
:100D8000C4060020044B036003F15C0008604FF4CC
:100D900080701060704700002009002000F10801F9
:100DA0004FF0FF32C0E90112C16001610021016012
:100DB000704700210161704730B50B685A1C02D0A2
:100DC00000F1080202E0026904E022465468256846
:100DD0009D42FAD953684B6099608A6051600861FE
:100DE0000168491C016030BD42684A6093688B60AD
:100DF00093685960916008610168491C01607047FF
:100E0000502080F31188BFF34F8FBFF36F8F0A49D3
:100E10004868401C486001280CD10848006810F060
:100E2000FF0F07D0502080F31188BFF34F8FBFF31F
:100E30006F8FFEE7704700009C00002004ED00E08B
:100E40000849486828B1401E486001D180F31188E4
:100E50007047502080F31188BFF34F8FBFF36F8F1F
:100E6000FEE700009C00002070B5002827D0144D3C
:100E7000A0F108046168E868014207D1502080F3BE
:100E80001188BFF34F8FBFF36F8FFEE722683AB12F
:100E9000502080F31188BFF34F8FBFF36F8FFEE7B1
:100EA0008143616000F074F96068696808446860B3
:100EB0002046FFF7F5FCBDE8704000F0F3BE70BDC2
:100EC000840000204FF0E02000210161816105498C
:100ED0004FF47A720968B1FBF2F1491E41610721B2
:100EE000016170473000002010B5FFF7BBF91149D0
:100EF00010280ED300F1E02090F8F0030A78904219
:100F000007D2502080F31188BFF34F8FBFF36F8F4C
:100F1000FEE709480068896800F4E060884207D964
:100F2000502080F31188BFF34F8FBFF36F8FFEE720
:100F300010BD00009C0000200CED00E010B5084B37
:100F4000002200BF53F832401CB1521C082AF9D3CA
:100F500010BD43F8321003EBC201486010BD000021
:100F6000A800002070B515460E460446FFF748FF5E
:100F700094F944100020491C01D184F8440094F9EC
:100F80004510491C01D184F84500FFF759FFA06BBB
:100F900028B92A46314604F1240000F051F82046D1
:100FA000BDE87040FFF70CBE10B5020014D00F482A
:100FB000806B38B1502080F31188BFF34F8FBFF39F
:100FC0006F8FFEE700F0E4F800211046FFF78CFA7F
:100FD00000F068FE002807D105494FF080500860F6
:100FE000BFF34F8FBFF36F8F10BD000034000020A0
:100FF00004ED00E002498A6A026049694160704775
:10100000340000200149012048627047340000206C
:1010100010B50C4650B1094909681831FFF7CCFEEC
:101020002046BDE810400121FFF75EBA502080F352
:101030001188BFF34F8FBFF36F8FFEE7340000209E
:1010400070B514460D4668B10A4909681831FFF7B2
:10105000CBFE0CB14FF0FF3521462846BDE870406D
:10106000FFF742BA502080F31188BFF34F8FBFF3D0
:101070006F8FFEE73400002070B504003ED0226D73
:10108000A2B1E06C884200D30146E06A884235D0C4
:10109000012A33D11A4D2A6894420FD1502080F38F
:1010A0001188BFF34F8FBFF36F8FFEE7502080F39F
:1010B0001188BFF34F8FBFF36F8FFEE7E162A26924
:1010C000002A02DBC1F13801A1610E4E00EB800065
:1010D000616906EB8000814210D1201DFFF734FECC
:1010E000E06AA969884200D9A86100EB800006EB9C
:1010F0008000211DBDE87040FFF776BE70BD000086
:1011000034000020E800002030B587B000240394AC
:1011100005AA04A903A80494FFF72AFEDDE9030148
:101120000094CDE90110002315A11748059A00F09D
:1011300062FC164D002868631FD000F015FE0128E0
:1011400009D0401C19D1502080F31188BFF34F8F74
:10115000BFF36F8FFEE7502080F31188BFF34F8FEE
:10116000BFF36F8F4FF0FF3028630120E8616C619F
:1011700007B0BDE8304000F045B807B030BD000012
:1011800049444C450000000081070008340000205D
:101190000248816B491C81637047000034000020C5
:1011A000164810B5816B11B10121416210BD0021BB
:1011B00041628169124A01E0B9B1491E01EB810324
:1011C00052F82330002BF7D001EB810302EB8302AE
:1011D00002F1080453685B685360A34201D15B6865
:1011E0005360DA680260816110BD502080F311887D
:1011F000BFF34F8FBFF36F8FFEE700003400002076
:10120000E80000201CB537480168374A914207D1F1
:10121000502080F31188BFF34F8FBFF36F8FFEE72D
:1012200000683149491E884207D1502080F3118857
:10123000BFF34F8FBFF36F8FFEE72C490878019003
:10124000FF20087008788DF800009DF800009DF8D8
:10125000002000F0F000904207D0502080F3118869
:10126000BFF34F8FBFF36F8FFEE79DF80000204B59
:1012700000F0500018700720986005E09DF80020ED
:1012800052008DF80020401E9DF800201206F5D473
:101290009860032807D0502080F31188BFF34F8F48
:1012A000BFF36F8FFEE74FF44070986001980870AD
:1012B0000C482030016841F470010160016841F080
:1012C00070410160FFF7FEFD00205860FEF792FFBD
:1012D0000848016841F040410160FEF777FF0020B7
:1012E0001CBD000000ED00E071C20F4100E400E011
:1012F0009C00002034EF00E010B5502080F31188EE
:10130000BFF34F8FBFF36F8F00F0B4FB18B10449E8
:101310004FF080500860002080F3118810BD00005D
:1013200004ED00E0F8B517460E46050014D0DEB116
:1013300005FB06F05030FFF779FC04000AD00020CE
:1013400084F8460004F150023B463146284600949A
:10135000FFF746FA2046F8BD502080F31188BFF30E
:101360004F8FBFF36F8FFEE70020E3E738B5049D92
:1013700018B153B1CAB181B120E0502080F3118877
:10138000BFF34F8FBFF36F8FFEE7502080F31188BC
:10139000BFF34F8FBFF36F8FFEE7502080F31188AC
:1013A000BFF34F8FBFF36F8FFEE739B1502080F34B
:1013B0001188BFF34F8FBFF36F8FFEE750241C4699
:1013C000012384F846302B460094FFF709FA2046A3
:1013D00038BD000070B50D46040025D0FFF710FDA4
:1013E000D4E90F20216802FB001161600021A16394
:1013F0002168A1600A46D4E90F01401E00FB0121CB
:10140000E16021464FF0FF3001F8440F487004F1CD
:1014100010008DB1FFF7C2FC04F12400FFF7BEFC01
:10142000FFF70EFD012070BD502080F31188BFF33F
:101430004F8FBFF36F8FFEE721690029F0D000F0D6
:10144000F9FB0028ECD004494FF080500860BFF34E
:101450004F8FBFF36F8FE3E704ED00E02DE9FF4707
:1014600082B01D468A464FF00008040003D0BAF14E
:10147000000F08D011E0502080F31188BFF34F8F88
:10148000BFF36F8FFEE7206C38B1502080F31188D6
:10149000BFF34F8FBFF36F8FFEE7022D0AD1E06BD2
:1014A000012807D0502080F31188BFF34F8FBFF37E
:1014B0006F8FFEE700F0CAFA3F4F4FF000094FF080
:1014C000805648B9049838B1502080F31188BFF392
:1014D0004F8FBFF36F8FFEE7FFF792FCA06BE16BBE
:1014E000884207D3022D05D00498D0B1B8F1000F7F
:1014F0001AD01EE02A4651462046FFF7CAF8616A14
:1015000019B104F1240000F095FB20B13E60BFF357
:101510004F8FBFF36F8FFFF793FC012006B0BDE83C
:10152000F087FFF78DFC22E06846FFF763FD4FF080
:101530000108FFF785FCFFF72BFEFFF761FC94F92C
:101540004400401C01D184F8449094F94500401CAB
:1015500001D184F84590FFF773FC04A9684600F0B8
:10156000E3F930B12046FFF72BFB00F09BFB002096
:10157000D4E7FFF745FCA06BE16B884213D1FFF77E
:101580005FFC04F110000499FFF742FD2046FFF7CD
:1015900017FB00F087FB00289ED13E60BFF34F8F02
:1015A000BFF36F8F98E7FFF74BFC2046FFF708FB70
:1015B00000F078FB90E7000004ED00E02DE9F04733
:1015C0001F4690468946040003D0B9F1000F08D0A9
:1015D00011E0502080F31188BFF34F8FBFF36F8F5E
:1015E000FEE7206C38B1502080F31188BFF34F8F95
:1015F000BFF36F8FFEE7022F0AD1E06B012807D0FF
:10160000502080F31188BFF34F8FBFF36F8FFEE739
:10161000FFF76AFC5020EFF3118680F31188BFF3C7
:101620004F8FBFF36F8FA06BE16B884206D3022F01
:1016300004D0002086F31188BDE8F08794F9455066
:101640003A4649462046FFF724F8681C04D06D1C32
:1016500084F845500120EDE7606A0028FAD004F1D3
:10166000240000F0E7FA0028F4D0B8F1000FF1D020
:101670000121C8F80010EDE72DE9F747002683B0F7
:101680008A46040003D0BAF1000F08D011E05020C0
:1016900080F31188BFF34F8FBFF36F8FFEE7206C8D
:1016A00038B1502080F31188BFF34F8FBFF36F8F95
:1016B000FEE700F0CBF9DFF8F4804FF000094FF0BF
:1016C000805748B9059838B1502080F31188BFF38E
:1016D0004F8FBFF36F8FFEE7FFF792FBA56BC5B18E
:1016E00051462046FEF7C2FF6D1EA563206950B12A
:1016F00004F1100000F09EFA28B1C8F80070BFF3A2
:101700004F8FBFF36F8FFFF79BFB012006B0BDE843
:10171000F087059808B11EB106E0FFF791FB27E0BE
:101720006846FFF767FC0126FFF78AFBFFF730FDED
:10173000FFF766FB94F94400401C01D184F8449003
:1017400094F94500401C01D184F84590FFF778FBDF
:1017500005A9684600F0E8F8002820460AD0FFF7FF
:101760002FFA00F09FFA2046FFF7DCF80028B3D0EC
:101770000020CBE7FFF7D6F890B104F124000599DB
:10178000FFF746FC2046FFF71BFA00F08BFA002813
:10179000A2D1C8F80070BFF34F8FBFF36F8F9BE7E4
:1017A0002046FFF70DFA00F07DFA95E704ED00E022
:1017B0002DE9F343002683B00400354609D0206CA0
:1017C00078B1502080F31188BFF34F8FBFF36F8F34
:1017D000FEE7502080F31188BFF34F8FBFF36F8F68
:1017E000FEE700F033F9DFF83C814FF000094FF0DD
:1017F000805748B9049838B1502080F31188BFF35E
:101800004F8FBFF36F8FFEE7FFF7FAFAA06BC8B1F7
:10181000401EA063206810B9FFF774FA6060206969
:1018200050B104F1100000F005FA28B1C8F80070BA
:10183000BFF34F8FBFF36F8FFFF702FB012005B09F
:10184000BDE8F083049808B166B10FE03DB15020C7
:1018500080F31188BFF34F8FBFF36F8FFEE7FFF761
:10186000EFFA5DE06846FFF7C5FB0126FFF7E8FAEF
:10187000FFF78EFCFFF7C4FA94F94400401C01D135
:1018800084F8449094F94500401C01D184F84590B7
:10189000FFF7D6FA04A9684600F046F8002820466B
:1018A00012D0FFF78DF900F0FDF92046FFF73AF866
:1018B0000028A9D09DB3FFF7A3FA606A50B3206B4C
:1018C0000068C0F1380126E0FFF72CF8E0B120688D
:1018D00038B9FFF795FA606800F070F90546FFF730
:1018E000AFFA04F124000499FFF792FB2046FFF7BA
:1018F00067F900F0D7F9002886D1C8F80070BFF367
:101900004F8FBFF36F8F7FE72046FFF759F900F045
:10191000C9F979E700216068FFF7AEFB9FE7FFE7B1
:1019200000208CE704ED00E02DE9F0410C460500B5
:1019300011D0C4B1FFF764FA174B5A696E6820687A
:10194000911B471C17D02F689B6A9F4219D0964263
:1019500017D8012410E0502080F31188BFF34F8F77
:10196000BFF36F8FFEE7502080F31188BFF34F8FD6
:10197000BFF36F8FFEE70024FFF762FA2046BDE851
:10198000F081884205D9401A20602846FFF732FBD3
:10199000F1E700202060DCE7340000202DE9FF5F44
:1019A0008346DDE90E87994616468A469000FFF782
:1019B0003DF905001CD05C20FFF738F9040014D075
:1019C0000020256384F85900CDE90240CDE9008765
:1019D0004B46324651465846FEF713FF2046FEF767
:1019E000B1FD012004B0BDE8F09F2846FFF73CFAA6
:1019F0004FF0FF30F6E7F0B585B0DDE90B640A9DE6
:101A0000A6B1DCB15C2700972663022684F85960F2
:101A1000002604AFCDE90246CDE90057FEF7F1FEFE
:101A20002046FEF78FFD049805B0F0BD502080F3EE
:101A30001188BFF34F8FBFF36F8FFEE7502080F305
:101A40001188BFF34F8FBFF36F8FFEE70548C16961
:101A500019B1806B18B10020704701207047022037
:101A600070470000340000200148406970470000C2
:101A7000340000202DE9F0412E4C0027A06B40B12E
:101A8000206A401C2062606A00B101273846BDE828
:101A9000F0816669761C666113D16068006838B1B0
:101AA000502080F31188BFF34F8FBFF36F8FFEE795
:101AB0006068A1686160A060A06A401CA062FEF737
:101AC000FFFF206BDFF87080864209D360680068F2
:101AD00080B16068C068C568686886420DD22063BE
:101AE0002068C06A00EB800158F821000128CAD99B
:101AF0000127C8E74FF0FF30F1E7281DFFF724F971
:101B0000A86A18B105F11800FFF71EF9E86AA16983
:101B1000884200D9A06100EB800108EB8100291DFB
:101B2000FFF762F9E86A2168C96A8842CED30127C3
:101B3000CCE7000034000020E800002070B504006D
:101B40004FF0000133D01B4D2868844207D050204D
:101B500080F31188BFF34F8FBFF36F8FFEE7206DC7
:101B600038B1401E2065E36CE26A9A421FD040B152
:101B70001DE0502080F31188BFF34F8FBFF36F8FAC
:101B8000FEE7201DFFF7E0F8E06CE062C0F13800EE
:101B9000A061E06AA969884200D9A861064900EB02
:101BA000800001EB8000211DFFF71EF9012108468E
:101BB00070BD000034000020E800002070B5040073
:101BC0004FF000002BD0194DE16A2A68D26A914289
:101BD00026D2A069002804DB2868C06AC0F138005A
:101BE000A061134E01EB8101606906EB810188421F
:101BF00011D1201DFFF7A8F82868C06AE062A96922
:101C0000884200D9A86100EB800006EB8000211D0E
:101C1000FFF7EAF802E02868C06AE062012070BDC0
:101C2000E16C2A68D26A9142F8D370BD340000207A
:101C3000E800002070B5C068C46854B104F1180011
:101C40000646FFF781F8144DA86B50B13146134892
:101C500015E0502080F31188BFF34F8FBFF36F8FD3
:101C6000FEE7201DFFF770F8E06AA969884200D9F5
:101C7000A8610B4900EB800001EB8000211DFFF7FC
:101C8000B3F8E06A2968C96A884202D9012068620B
:101C900070BD002070BD00003400002070050020E1
:101CA000E80000202DE9F0472C4D00242746A86BC2
:101CB00038B1FFF7A5F8A86B401EA863A86B40B128
:101CC00046E0502080F31188BFF34F8FBFF36F8F32
:101CD000FEE72969224E0120D1B3A6F5916980461D
:101CE0003068E0B1F068C46804F11800FFF72CF820
:101CF000201DFFF729F8E06AA969884200D9A86188
:101D000000EB800109EB8100211DFFF76DF8E06A0F
:101D10002968C96A8842E3D3C5F82480E0E70CB19A
:101D2000FEF7CEFE2C6A4CB14FEA0806FFF7A2FE82
:101D300000B16E62641EF9D100202862686A38B171
:101D40000849012738070860BFF34F8FBFF36F8F33
:101D5000FFF776F83846BDE8F08700003400002031
:101D60007005002004ED00E010B586B0FEF752FCCF
:101D7000114CA068B8B100200390049005AA04A9F2
:101D800003A8FEF7FFFFDDE9032102208DE807002D
:101D900000230AA10B48059AFFF72DFEE06010B161
:101DA00006B0012010BD502080F31188BFF34F8F83
:101DB000BFF36F8FFEE7000070000020546D7220AB
:101DC000537663009D0B00082DE9FF411E46134624
:101DD00002000A9D4FF0000016D0144CA768002F97
:101DE0000FD0CDE900130292062917DAFFF72EFE75
:101DF00002284FF000030FD000226946A068FFF7C9
:101E00002DFB04B0BDE8F081502080F31188BFF3B2
:101E10004F8FBFF36F8FFEE72A46EEE7002332466F
:101E200069463846FFF7CAFBEBE700007000002068
:101E3000501E000800000020A80000002204000836
:101E4000F81E0008A8000020D84C0000320400084A
:101E50000000000001000000000000000000000081
:101E60000000000000000000000000000000000072
:101E70000000000001000000100000000000000051
:101E80000024F4000000000000000000000000003A
:101E90000000000000000000000000000000000042
:101EA0000000000000000000000000000000000032
:101EB0000000000000000000000000000000000022
:101EC0000000000000000000000000000000000012
:101ED0000000000000000000000000000000000002
:101EE00000000000000000000000000000000000F2
:081EF000AAAAAAAA0000000042
:040000050800019559
:00000001FF
