:020000040800F2
:10000000D04300206D020008350300082D030008CE
:1000100031030008B5020008C10300080000000019
:10002000000000000000000000000000AD0100081A
:10003000B90200080000000009020008910300084E
:10004000870200088702000887020008870200086C
:10005000870200088702000887020008870200085C
:10006000870200088702000887020008870200084C
:10007000870200088702000887020008870200083C
:1000800087020008870200088702000800000000BD
:1000900000000000000000000000000087020008CF
:1000A000870200088702000887020008870200080C
:1000B00087020008870200088702000887020008FC
:1000C00087020008870200088702000887020008EC
:1000D000870200088702000887020008000000006D
:1000E000870200088702000887020008000000005D
:1000F000000000000000000000000000870200086F
:10010000000000008702000887020008870200083C
:1001100000000000000000000000000000000000DF
:10012000870200088702000887020008870200088B
:10013000870200080000000000000000000000002E
:10014000000000000000000000000000870200081E
:10015000870200088702000887020008870200085B
:10016000870200088702000800000000000000006D
:10017000000000000000000000000000000000007F
:1001800000000000870200080000000000000000DE
:1001900087020008DFF810D000F07AF80048004726
:1001A000E5030008AFF30080D04300202C4B196812
:1001B0000868B0E8F04F80F30988BFF36F8F4FF005
:1001C000000080F3118870470000000008480068B4
:1001D000006880F308884FF0000080F3148862B64E
:1001E00061B6BFF34F8FBFF36F8F00DF00BF00BF5B
:1001F00008ED00E0DFF80C00016841F470010160D7
:10020000704700BF88ED00E0EFF30980BFF36F8F08
:10021000134B1A681EF0100F08BF20ED108A20E95A
:10022000F04F106009B44FF0500080F31188BFF315
:100230004F8FBFF36F8F00F087FD4FF0000080F30A
:10024000118809BC19680868B0E8F04F1EF0100F5B
:1002500008BFB0EC108A80F30988BFF36F8F704736
:1002600028000020EFF30580704700000648804713
:1002700006480047FEE7FEE7FEE7FEE7FEE7FEE78B
:10028000FEE7FEE7FEE7FEE7A5030008950100088C
:10029000064C074D06E0E06840F0010394E80700D3
:1002A00098471034AC42F6D3FFF778FFFC120008F1
:1002B0001C13000800BFFEE7704700000024002068
:1002C0001149086041F270751CE001200F49086077
:1002D0000D48006880F001000B49086006E00A48FC
:1002E000006880F0010008490860641C08488442E6
:1002F000F5D300240020054908600349086028461A
:1003000000F094FCE1E700000C0000201000002049
:10031000007C9200034800680349097808440149B9
:1003200008607047180000202000002000BFFEE792
:1003300000BFFEE700BFFEE700240020114908606F
:1003400040F2DC551CE001200F4908600D480068B0
:1003500080F001000B49086006E00A48006880F060
:10036000010008490860641C08488442F5D3002451
:1003700000200449086004490860284600F056FC43
:10038000E1E700000800002014000020804F120068
:1003900010B5FFF7BFFF00F07BFE012801D000F091
:1003A000CDFD10BD0548006840F4700003490860A9
:1003B0004FF00060014980390860704788ED00E027
:1003C00000BFFEE702E008C8121F08C1002AFAD1E8
:1003D00070477047002001E001C1121F002AFBD1C5
:1003E000704700001CB50C4801210023C822CDE94C
:1003F00000100AA10E4800F0BBFD0E4801210023A9
:10040000C822CDE900100CA10F4800F0B1FD00F0AA
:100410003BFC00BFFEE7000004000020477265655A
:100420006E4C6564466C6173685461736B000000C8
:10043000BD020008000000205265644C6564466CF3
:100440006173685461736B00390300082DE9F04152
:1004500005460E461C4807681C480068001D00F051
:10046000E9FA50B91948006890F82C10012088402A
:1004700017490968814316480160681C38B936B1CC
:1004800012480168091D134800F01EFB1AE07C1990
:100490000E4800684460BC4207D20C480168091D40
:1004A0000D48006800F0F6FA0CE008480168091DE4
:1004B0000A48006800F0EEFA09480068844201D258
:1004C00007480460BDE8F0813C00002028000020BF
:1004D00040000020B8030020300000202C00002045
:1004E0005800002010B5044600F0FAFA23480068CE
:1004F000401C224908602248006840B92048046036
:100500000846006801280DD100F03EF90AE01D48B8
:10051000006838B91A480068C06AE16A884201D8A0
:100520001748046018480068401C1749086094F890
:100530002C100120884015490968084313490860B8
:10054000E16A01EB8101124A02EB8100211D00F0FA
:10055000BBFA00F0EFFA0B48006868B10848006881
:10056000C06AE16A884207D24FF0805009490860AA
:10057000BFF34F8FBFF36F8F10BD00003800002016
:1005800028000020440000205400002040000020EB
:10059000DC02002004ED00E010B516E000F0A0FA47
:1005A0000C48C068C468201D00F044FA0A4800687E
:1005B000401E0949086009480068401E0749086054
:1005C00000F0B8FA204600F00BF804480068002854
:1005D000E4D110BDA4030020380000203400002026
:1005E00010B5044694F8510030B9206B00F0C0FA01
:1005F000204600F0BDFA1AE094F85100012803D11A
:10060000204600F0B5FA12E094F85100022801D11A
:10061000012000E0002050B900BF502080F3118875
:10062000BFF34F8FBFF36F8F00BF00BFFEE710BD5A
:1006300030B54FF47053174800F007042CB1C01DBB
:1006400020F00700134C041B1B1B0246124C2260B7
:100650000024114D6C60D018083820F007000F4CB2
:10066000206000240D4D2D686C600C4D2D682C60B1
:100670001146441A4C60094C24680C60084D4C68C3
:100680002C60084D4C682C604FF00044064D2C60E7
:1006900030BD0000CC030020640000206C0000206E
:1006A00074000020700000207800002000BFFFF7D9
:1006B00073FF064800680128F9D94FF080500449BB
:1006C0000860BFF34F8FBFF36F8FF0E7DC020020AD
:1006D00004ED00E02DE9FF5F81460E469246DDE91C
:1006E0000E7B109CAAF10100216B01EB800828F021
:1006F000070808F0070008B9012000E0002050B901
:1007000000BF502080F31188BFF34F8FBFF36F8F6E
:1007100000BF00BFFEE786B1002507E0715D04F170
:1007200034004155705D00B902E06D1C102DF5D309
:1007300000BF00214320015502E0002084F834006E
:10074000072F00D30627E76267640020A064201DFE
:1007500000F09DF904F1180000F099F92461C7F147
:100760000700A06164620020E06484F850004946FC
:100770004046039A00F048F92060BBF1000F01D019
:10078000CBF80040BDE8FF9F10B5002407E004EB64
:1007900084010F4A02EB810000F06CF9641C072C05
:1007A000F5D30C4800F066F90B4800F063F90B48EC
:1007B00000F060F90A4800F05DF90A4800F05AF9C3
:1007C00004480949086004480849086010BD000051
:1007D000DC020020680300207C030020900300203E
:1007E000A4030020B80300202C00002030000020CB
:1007F00010B50146164800E0006803688B42FBD341
:100800000246436813448B4204D143684C68234436
:10081000436001460A464B6813440468A34211D161
:100820000C4C03682468A34208D04B6804686468D1
:1008300023444B6003681B680B6005E0054B1B6895
:100840000B6001E003680B60884200D0016010BDBE
:10085000640000206C0000200A490968096809B991
:10086000012100E0002121B14FF0FF31064A116063
:1008700006E004490968C968C868034A416811600C
:10088000704700002C000020580000200E4800682F
:10089000401C08B9012000E0002050B900BF5020E2
:1008A00080F31188BFF34F8FBFF36F8F00BF00BF7E
:1008B000FEE700BF502080F31188BFF34F8FBFF3D6
:1008C0006F8F00BF00BFFEE77C0000202DE9F041E4
:1008D00004464FF0000800F02FFA4648006808B9B7
:1008E000FFF7A6FE44480068204000286BD1D4B131
:1008F000083404F00700B0B104F00700C0F10800AC
:10090000044404F0070008B9012000E0002050B9B9
:1009100000BF502080F31188BFF34F8FBFF36F8F5C
:1009200000BF00BFFEE7002C4DD034480068844271
:1009300049D8334E3046056801E02E462D68686878
:10094000A04202D228680028F7D12A4800688542D0
:1009500039D0306800F10808286830606868001BEA
:10096000102819D92F1907F0070008B9012000E055
:10097000002050B900BF502080F31188BFF34F8F83
:10098000BFF36F8F00BF00BFFEE76868001B786091
:100990006C603846FFF72CFF184968680968081A28
:1009A000164908600846006816490968884203D25B
:1009B00012480068134908600F49686809680843CD
:1009C00068600020286000F017FC08F0070008B9F4
:1009D000012000E0002050B900BF502080F31188B2
:1009E000BFF34F8FBFF36F8F00BF00BFFEE74046DE
:1009F000BDE8F0816C00002078000020700000202D
:100A00006400002074000020001F4FF0807303601A
:100A1000001F21F001030360001F054B0360143821
:100A20000260001F6FF0020303602038704700006F
:100A30008D08000801460A69D1E901309860D1E9C2
:100A4000010358605068884201D1886850600020D6
:100A500008611068401E106010687047034B036007
:100A6000034B0B6080231360704700008800002058
:100A7000DC00002000F1080141604FF0FF3181608F
:100A800000F10801C160016100210160704700218F
:100A90000161704710B502460B685C1C0CB9106907
:100AA00007E002F1080000E04068446824689C42C6
:100AB000FAD944684C604C68A160886041600A6162
:100AC0001468641C146010BD42684A6093688B60AF
:100AD000936859609160086103685B1C036070470C
:100AE00000BF502080F31188BFF34F8FBFF36F8F8B
:100AF00000BF0E480068401C0C49086008460068AA
:100B0000012812D10A480068C0B208B9012000E0EB
:100B1000002050B900BF502080F31188BFF34F8FE1
:100B2000BFF36F8F00BF00BFFEE770477C0000205F
:100B300004ED00E00D48006850B900BF502080F37C
:100B40001188BFF34F8FBFF36F8F00BF00BFFEE769
:100B500006480068401E054908600846006820B93C
:100B6000002080F3118800BF00BF70477C00002088
:100B700070B506463546002E3FD0083D2C461F492D
:100B800060680968084008B1012000E0002050B901
:100B900000BF502080F31188BFF34F8FBFF36F8FDA
:100BA00000BF00BFFEE7206808B9012000E0002078
:100BB00050B900BF502080F31188BFF34F8FBFF3AF
:100BC0006F8F00BF00BFFEE70C49606809680840EE
:100BD00098B1206888B909496068096888436060ED
:100BE00000F0AAF8064960680968084404490860EA
:100BF0002046FFF7FDFD00F0FFFA70BD78000020F1
:100C00007000002000204FF0E02108618861064854
:100C100000684FF47A71B0FBF1F0401E4FF0E02114
:100C200048610720086170472400002070B5044621
:100C30000025D4B11248006808B9012000E0002066
:100C400050B900BF502080F31188BFF34F8FBFF31E
:100C50006F8F00BF00BFFEE700F06EF80021204656
:100C6000FFF7F4FB00F0C8FA05463DB94FF080509D
:100C700004490860BFF34F8FBFF36F8F70BD000052
:100C80006000002004ED00E010B586B00020059063
:100C9000049003AA04A905A8FFF7E0FE0022DDE9FD
:100CA00004101346CDE9002102901CA11D48039AAF
:100CB00000F090F91C4908600846006808B101245A
:100CC00000E00024012C15D100BF502080F31188D2
:100CD000BFF34F8FBFF36F8F00BF4FF0FF3013494B
:100CE000086001201249086000201249086000F0E5
:100CF00071F810E0601C08B1012000E0002050B93C
:100D000000BF502080F31188BFF34F8FBFF36F8F68
:100D100000BF00BFFEE706B010BD000049444C45CF
:100D200000000000AD0600085C0000205800002014
:100D3000440000203C00002002480068401C01499B
:100D400008607047600000201D48006818B101204D
:100D50001C49086032E000201A4908601A480068FF
:100D6000B0FA80F0C0F11F0101EB8100174A52F880
:100D7000200008B1012000E0002050B900BF502041
:100D800080F31188BFF34F8FBFF36F8F00BF00BF99
:100D9000FEE701EB81020D4B03EB820042685268D3
:100DA000426000F108024368934202D142685268EF
:100DB00042604268D268064B1A6000BF704700006C
:100DC000600000204C00002040000020DC020020D9
:100DD000280000201CB5524800685249884201D0C2
:100DE000012000E0002050B900BF502080F311889E
:100DF000BFF34F8FBFF36F8F00BF00BFFEE74848C0
:100E000000684849491E884201D0012000E00020C6
:100E100050B900BF502080F31188BFF34F8FBFF34C
:100E20006F8F00BF00BFFEE73F4908460078019082
:100E3000FF200A4610700846007800909DF80000D8
:100E400000F0F0009DF80020904201D1012000E068
:100E5000002050B900BF502080F31188BFF34F8F9E
:100E6000BFF36F8F00BF00BFFEE79DF8000000F0EA
:100E700050002E4A107007202D4A106009E02C48BF
:100E80000068401E2A4A10609DF800004006000ECF
:100E900000909DF8000000F080008028EFD02448EA
:100EA0000068C0F10700042801D1012000E0002003
:100EB00050B900BF502080F31188BFF34F8FBFF3AC
:100EC0006F8F00BF00BFFEE7194800680002184A94
:100ED00010601046008800F4E0601060124A01982B
:100EE00010700F482030006840F470000C49203129
:100EF00008600846006840F070400860FFF782FE16
:100F000000200C490860FFF775F90B48006840F0B5
:100F1000404009490860FFF759F900201CBD000056
:100F200000ED00E071C20F4100E400E0800000200D
:100F3000840000207C00002034EF00E010B500BFEA
:100F4000502080F31188BFF34F8FBFF36F8F00BF26
:100F500000F0AEF818B14FF080500449086000BFAF
:100F6000002080F3118800BF10BD000004ED00E0F8
:100F70002DE9FF4F85B0804689461746DDE912AB63
:100F8000B800FFF7A3FC064656B15420FFF79EFCBD
:100F900004460CB1266304E03046FFF7E9FD00E0AB
:100FA00000248CB1002084F85100CDE900ABCDE9DC
:100FB00002403A4649464046089BFFF78BFB2046D5
:100FC000FFF790FA012501E04FF0FF35284609B000
:100FD000BDE8F08F2DE9F04F85B007468846914671
:100FE0009A46DDE90EB6109C0EB1012000E000200B
:100FF00050B900BF502080F31188BFF34F8FBFF36B
:101000006F8F00BF00BFFEE70CB1012000E00020A1
:1010100050B900BF502080F31188BFF34F8FBFF34A
:101020006F8F00BF00BFFEE7542003900398542841
:1010300001D1012000E0002050B900BF502080F312
:101040001188BFF34F8FBFF36F8F00BF00BFFEE764
:1010500000BFB4B1AEB125462C462E63022085F800
:101060005100002004A953464A46CDE900B1CDE91C
:10107000025041463846FFF72DFB2846FFF732FA6B
:1010800001E000200490049805B0BDE8F08F000056
:101090000549096809B9012005E00449096809B949
:1010A000022000E000207047440000206000002083
:1010B0002DE9F0414FF0000844480068002877D13E
:1010C00043480068451C4248056015BB414800681C
:1010D000006808B9012000E0002050B900BF50208E
:1010E00080F31188BFF34F8FBFF36F8F00BF00BF36
:1010F000FEE73848076838480068364908603648CF
:10110000076036480068401C34490860FFF7A4FBBC
:1011100000BF3348006885423CD300BF2D480068BB
:10112000006808B9012000E0002020B14FF0FF3036
:101130002B4908602DE027480068C068C4686668CD
:10114000B54202D22648066023E0201DFFF772FC5C
:10115000A06A18B104F11800FFF76CFC94F82C1089
:10116000012088401F49096808431E490860E16A58
:1011700001EB81011C4A02EB8100211DFFF7A4FC59
:101180001A49E06A0968C96A8842C7D34FF0010862
:10119000C4E700BF15480068C06A00EB8000124930
:1011A00051F82000012801D94FF0010805E0FFE7C0
:1011B0000F480068401C0E4908600E48006808B1DE
:1011C0004FF001084046BDE8F081000060000020BB
:1011D0003C0000202C0000203000002050000020A7
:1011E0005800002040000020DC02002028000020E1
:1011F000480000204C00002070B50024002636482E
:10120000006850B900BF502080F31188BFF34F8FA2
:10121000BFF36F8F00BF00BFFEE7FFF761FC2E48F2
:101220000068401E2C4908600846006800284FD11D
:101230002A48006800284BD024E02948C068C468C8
:1012400004F11800FFF7F6FB201DFFF7F3FB94F8FD
:101250002C1001208840234909680843214908606F
:10126000E16A01EB8101204A02EB8100211DFFF7B9
:101270002BFC1E49E06A0968C96A884202D3012032
:101280001B4908601648006808B9012000E00020EA
:101290000028D2D00CB1FFF7DFFA1648056865B117
:1012A00000BFFFF705FF10B10120114908606D1E56
:1012B000002DF6D100200F4908600D48006838B1B4
:1012C000012630070C490860BFF34F8FBFF36F8FC3
:1012D000FFF730FC304670BD600000203800002071
:1012E0009003002040000020DC02002028000020A5
:1012F0004C0000204800002004ED00E01C13000812
:101300000000002088000000C4030008A4130008A7
:101310008800002048430000D403000800000000BB
:1013200000000000000000000000000000000000BD
:10133000000000000000000010000000010000009C
:101340000024F40000000000000000000000000085
:10135000000000000000000000000000000000008D
:10136000000000000000000000000000000000007D
:10137000000000000000000000000000000000006D
:10138000000000000000000000000000000000005D
:101390000000000000000000AAAAAAAA00000000A5
:0413A0000000000049
:040000050800019559
:00000001FF
