:020000040800F2
:10000000C84300206D0200085D03000825030008B6
:1000100059030008050300089103000800000000D0
:10002000000000000000000000000000AD0100081A
:100030000903000800000000090200085F0300082F
:10004000870200088702000887020008870200086C
:10005000870200088702000887020008870200085C
:10006000870200088702000887020008870200084C
:10007000870200088702000887020008870200083C
:1000800087020008870200088702000800000000BD
:1000900000000000000000000000000087020008CF
:1000A000870200088702000887020008870200080C
:1000B00087020008870200088702000887020008FC
:1000C00087020008870200088702000887020008EC
:1000D000870200088702000887020008000000006D
:1000E000870200088702000887020008000000005D
:1000F000000000000000000000000000870200086F
:10010000000000008702000887020008870200083C
:1001100000000000000000000000000000000000DF
:10012000870200088702000887020008870200088B
:10013000870200080000000000000000000000002E
:10014000000000000000000000000000870200081E
:10015000870200088702000887020008870200085B
:10016000870200088702000800000000000000006D
:10017000000000000000000000000000000000007F
:1001800000000000870200080000000000000000DE
:1001900087020008DFF810D000F0A2F800480047FE
:1001A000E1050008AFF30080C84300202C4B19681C
:1001B0000868B0E8F04F80F30988BFF36F8F4FF005
:1001C000000080F3118870470000000008480068B4
:1001D000006880F308884FF0000080F3148862B64E
:1001E00061B6BFF34F8FBFF36F8F00DF00BF00BF5B
:1001F00008ED00E0DFF80C00016841F470010160D7
:10020000704700BF88ED00E0EFF30980BFF36F8F08
:10021000134B1A681EF0100F08BF20ED108A20E95A
:10022000F04F106009B44FF0500080F31188BFF315
:100230004F8FBFF36F8F01F041F84FF0000080F354
:10024000118809BC19680868B0E8F04F1EF0100F5B
:1002500008BFB0EC108A80F30988BFF36F8F704736
:100260001C000020EFF3058070470000064880471F
:1002700006480047FEE7FEE7FEE7FEE7FEE7FEE78B
:10028000FEE7FEE7FEE7FEE77503000895010008BC
:1002900040EA01039B0703D009E008C9121F08C008
:1002A000042AFAD203E011F8013B00F8013B521E88
:1002B000F9D2704730B50B460146002020220124B8
:1002C00009E021FA02F59D4205D303FA02F5491B24
:1002D00004FA02F52844151EA2F10102F1DC30BD3A
:1002E000064C074D06E0E06840F0010394E8070083
:1002F00098471034AC42F6D3FFF750FF601E000859
:10030000801E000800BFFEE7704700000348006839
:100310000349097808440149086070470C0000202F
:100320001400002000BFFEE70A49096801F001013E
:1003300071B108498039096801F0010141B100BF7C
:100340004FF0604109680029FAD04FF06042107008
:1003500070470000800E00E000BFFEE7704710B558
:10036000FFF7D4FF01F096FB012801D001F0A0F8BF
:1003700010BD00000548006840F4700003490860A3
:100380004FF00060014980390860704788ED00E057
:1003900000BFFEE70FB4054B10B503A9044A02984D
:1003A00000F02CF810BC5DF814FB0000C10500083B
:1003B0007C0000200FB4084B10B504A902AA0398D2
:1003C00000F01CF8044602A9002000F0F3F82046D3
:1003D00010BC5DF814FB0000B505000802E008C879
:1003E000121F08C1002AFAD170477047002001E0AF
:1003F00001C1121F002AFBD1704700002DE9FF4FF9
:100400008BB09A460F460546002606E025280BD0FD
:1004100052460D9990476D1C761C28780028F5D11E
:100420000FB03046BDE8F08F0024A046012260499D
:1004300000E0044315F8013F203B02FA03F00842B4
:10044000F7D128782E2817D115F8010F44F00404AD
:100450002A280ED06FF02F022878A0F13001092948
:100460000AD808EB880102EB410100EB01086D1C82
:10047000F2E757F8048B6D1C287869283ED006DC1B
:100480000028CDD063280BD0642804D136E073282F
:1004900010D075284BD052460D999047761C85E0B8
:1004A00017F8040B8DF8000000208DF80100E946D4
:1004B000012003E057F8049B4FF0FF3061074FF035
:1004C000000401D40AE0641C44450DDA8442FADBDE
:1004D00019F804100029F6D106E0641C8442FCDB04
:1004E00019F804100029F8D1264404E019F8010B8A
:1004F00052460D999047641EF8D257E001CF4FF055
:100500000A0B002802DA40422D2102E0210504D521
:100510002B218DF82410012103E0E10705D02021D3
:10052000F7E70DF1200908910CE00021F9E701CF70
:100530004FF00A0BF9E75946FFF7BCFE01F1300214
:1005400009F8012D0028F6D1ADEB090000F1200BD0
:10055000600701D44FF00108D84502DDA8EB0B007D
:1005600000E000208046002406E009A85246005D15
:100570000D999047641C761C08988442F5DB04E0D2
:10058000302052460D999047761CB8F10001A8F131
:100590000108F5DC05E019F8010B52460D9990476A
:1005A000761CBBF10001ABF1010BF4DC6D1C34E7F0
:1005B000092801000A68531C0B6010707047000086
:1005C00070B505460C460548844203D1284600F024
:1005D000A1FC70BD4FF0FF30FBE700007C00002065
:1005E0001CB50C4801210023C822CDE900100AA146
:1005F0000B4801F0C1F90B4801210023C822CDE9C5
:10060000001009A10A4801F0B7F900F0F7FD00BF9A
:10061000FEE70000000000207461736B31000000F1
:1006200035060008040000207461736B320000007E
:100630002D07000888B0012400221E21052000F0AB
:1006400051FF2049086020A16846FFF7B3FE002350
:100650001A4669461B48006800F0C0FF1DA16846A5
:10066000FFF7A8FE0123002269461648006800F043
:10067000B5FF1BA16846FFF79DFE00231A46694699
:100680001048006800F0AAFF0E48006800F05CFC0B
:100690000546294615A0FFF77DFE12E021461BA066
:1006A000FFF778FE41F2883000F04CFD1CA168464F
:1006B000FFF780FE00231A4669460248006800F0F2
:1006C0008DFFEBE7080000206D657373616765318E
:1006D000000000006D657373616765320000000003
:1006E0006D65737361676533000000006461746158
:1006F0002077616974696E6720746F20626520726B
:100700006561642025643A0D0A20000068656C6C00
:100710006F2C207461736B3121203A25640D0A001F
:100720006D657373616765340000000088B0022452
:100730001FE010480068A0B1052269460D48006816
:1007400001F020F868B10B48006800F0FDFB054699
:10075000294609A0FFF71EFE69460BA0FFF71AFE07
:1007600000BF21460DA0FFF715FE4FF47A7000F090
:10077000E9FCDEE7080000206C6120706C616365B5
:10078000203A202564200A00646174612072656348
:1007900065697665643A2025730D0A0068656C6C9E
:1007A0006F2C207461736B3221203A25640D0A008E
:1007B0002DE9F04105460E461C4807681C480068B4
:1007C000001D00F0ADFB50B91948006890F82C10DE
:1007D0000120884017490968814316480160681C58
:1007E00038B936B112480168091D134800F0F8FB0A
:1007F0001AE07C190E4800684460BC4207D20C48DD
:100800000168091D0D48006800F0D0FB0CE00848A5
:100810000168091D0A48006800F0C8FB0948006823
:10082000844201D207480460BDE8F0813000002016
:100830001C00002034000020B00300202400002011
:10084000200000204C00002010B5044600F0D4FB2E
:1008500023480068401C224908602248006840B9CB
:10086000204804600846006801280DD100F0A0F976
:100870000AE01D48006838B91A480068C06AE16A91
:10088000884201D81748046018480068401C17497E
:10089000086094F82C100120884015490968084325
:1008A00013490860E16A01EB8101124A02EB810001
:1008B000211D00F095FB00F0C9FB0B48006868B1F2
:1008C00008480068C06AE16A884207D24FF0805049
:1008D00009490860BFF34F8FBFF36F8F10BD000051
:1008E0002C0000201C0000203800002048000020C0
:1008F00034000020D402002004ED00E010B516E022
:1009000000F07AFB0C48C068C468201D00F008FBAA
:100910000A480068401E0949086009480068401EEE
:100920000749086000F092FB204600F05EF804489A
:1009300000680028E4D110BD9C0300202C0000209A
:100940002800002070B504460D46206C70B1216C63
:10095000E0680844E0606168E068884201D320688C
:10096000E0602846226CE168FFF792FC70BD2DE93B
:10097000F04104460F4615464FF00008A66B206C68
:1009800040B9206860BB606801F038F980460020FB
:10099000606025E07DB93946226CA068FFF778FCDD
:1009A000216CA0680844A060D4E90110884217D3E4
:1009B0002068A06014E03946226CE068FFF768FC0C
:1009C000216CE068401AE0602168E068884203D248
:1009D000216C6068401AE060022D01D106B1761EDC
:1009E000701CA0634046BDE8F08110B5044694F841
:1009F000510030B9206B00F047FB204600F044FB6B
:100A00001AE094F85100012803D1204600F03CFB85
:100A100012E094F85100022801D1012000E00020EA
:100A200050B900BF502080F31188BFF34F8FBFF340
:100A30006F8F00BF00BFFEE710BD000030B54FF460
:100A40007053174800F007042CB1C01D20F00700B8
:100A5000134C041B1B1B0246124C22600024114D38
:100A60006C60D018083820F007000F4C206000247C
:100A70000D4D2D686C600C4D2D682C601146441A8C
:100A80004C60094C24680C60084D4C682C60084D83
:100A90004C682C604FF00044064D2C6030BD0000C7
:100AA000C4030020580000206000002068000020DF
:100AB000640000206C00002000BFFFF71FFF064805
:100AC00000680128F9D94FF0805004490860BFF34D
:100AD0004F8FBFF36F8FF0E7D402002004ED00E0EA
:100AE0002DE9F04106460D4617469846069C0DB97D
:100AF000246000E02760E66325640121204600F0C1
:100B000021FDBDE8F0812DE9FF5F81460F46924649
:100B1000DDE90E6B109CAAF10100216B01EB80084E
:100B200028F0070808F0070008B9012000E00020BD
:100B300050B900BF502080F31188BFF34F8FBFF32F
:100B40006F8F00BF00BFFEE7002507E0795D04F16D
:100B500034004155785D00B902E06D1C102DF5D3CD
:100B600000BF002143200155072E00D30626E66270
:100B700066640020A064201D00F015FA04F118003E
:100B800000F011FA2461C6F10700A0616462002040
:100B9000E06484F8500049464046039A00F0A4F906
:100BA0002060BBF1000F01D0CBF80040BDE8FF9FF3
:100BB00010B5002407E004EB84010F4A02EB81002A
:100BC00000F0E4F9641C072CF5D30C4800F0DEF9C2
:100BD0000B4800F0DBF90B4800F0D8F90A4800F0A8
:100BE000D5F90A4800F0D2F90448094908600448D8
:100BF0000849086010BD0000D402002060030020F6
:100C000074030020880300209C030020B003002010
:100C1000200000202400002010B50146164800E006
:100C2000006803688B42FBD30246436813448B423F
:100C300004D143684C682344436001460A464B682C
:100C400013440468A34211D10C4C03682468A342E6
:100C500008D04B680468646823444B6003681B68D1
:100C60000B6005E0054B1B680B6001E003680B603F
:100C7000884200D0016010BD5800002060000020B4
:100C800070B5054600F0B8F9A86B08B9012400E07A
:100C9000002400F0DBF9204670BD70B5054600F079
:100CA000ABF9A86BE96B884201D1012400E0002474
:100CB00000F0CCF9204670BD0A490968096809B9F5
:100CC000012100E0002121B14FF0FF31064A1160FF
:100CD00006E004490968C968C868034A41681160A8
:100CE00070470000200000204C0000200E480068E3
:100CF000401C08B9012000E0002050B900BF50207E
:100D000080F31188BFF34F8FBFF36F8F00BF00BF19
:100D1000FEE700BF502080F31188BFF34F8FBFF371
:100D20006F8F00BF00BFFEE77000002070B5044663
:100D300000F062F994F9455010E0606A08B90120AA
:100D400000E0002038B904F1240000F0BBFF18B126
:100D500000F032FA00E003E0681E45B2002DECDC42
:100D600000BFFF2084F8450000F070F900F044F95E
:100D700094F9445010E0206908B9012000E00020F7
:100D800048B904F1100000F09DFF08B100F014FA1A
:100D9000681E45B200E001E0002DECDC00BFFF2042
:100DA00084F8440000F052F970BD00002DE9F041D4
:100DB00004464FF0000800F079FA4648006808B988
:100DC000FFF73CFE44480068204000286BD1D4B1B6
:100DD000083404F00700B0B104F00700C0F10800C7
:100DE000044404F0070008B9012000E0002050B9D5
:100DF00000BF502080F31188BFF34F8FBFF36F8F78
:100E000000BF00BFFEE7002C4DD03448006884428C
:100E100049D8334E3046056801E02E462D68686893
:100E2000A04202D228680028F7D12A4800688542EB
:100E300039D0306800F10808286830606868001B05
:100E4000102819D92F1907F0070008B9012000E070
:100E5000002050B900BF502080F31188BFF34F8F9E
:100E6000BFF36F8F00BF00BFFEE76868001B7860AC
:100E70006C603846FFF7D0FE184968680968081AA0
:100E8000164908600846006816490968884203D276
:100E900012480068134908600F49686809680843E8
:100EA00068600020286000F059FF08F0070008B9CA
:100EB000012000E0002050B900BF502080F31188CD
:100EC000BFF34F8FBFF36F8F00BF00BFFEE74046F9
:100ED000BDE8F081600000206C000020640000206C
:100EE0005800002068000020001F4FF0807303604E
:100EF000001F21F001030360001F054B036014383D
:100F00000260001F6FF0020303602038704700008A
:100F1000ED0C000800B503461846FFF705FA00BDC2
:100F200001460A69D1E901309860D1E901035860AE
:100F30005068884201D188685060002008611068BC
:100F4000401E10601068704770B5044654B900BF69
:100F5000502080F31188BFF34F8FBFF36F8F00BF16
:100F600000BFFEE700F048F8A56B00F06FF82846D8
:100F700070BD0000034B0360034B0B6080231360C4
:100F80007047000080000020D400002000F108011C
:100F900041604FF0FF31816000F10801C1600161E3
:100FA00000210160704700210161704710B50246C1
:100FB0000B685C1C0CB9106907E002F1080000E046
:100FC0004068446824689C42FAD944684C604C6884
:100FD000A160886041600A611468641C146010BDDF
:100FE00042684A6093688B609368596091600861B9
:100FF00003685B1C0360704700BF502080F31188BA
:10100000BFF34F8FBFF36F8F00BF0E480068401CC7
:101010000C49086008460068012812D10A48006897
:10102000C0B208B9012000E0002050B900BF502034
:1010300080F31188BFF34F8FBFF36F8F00BF00BFE6
:10104000FEE770477000002004ED00E00D480068E6
:1010500050B900BF502080F31188BFF34F8FBFF30A
:101060006F8F00BF00BFFEE706480068401E0549BD
:1010700008600846006820B9002080F3118800BF8E
:1010800000BF70477000002070B506463546002E40
:101090003FD0083D2C461F4960680968084008B1E8
:1010A000012000E0002050B900BF502080F31188DB
:1010B000BFF34F8FBFF36F8F00BF00BFFEE7206805
:1010C00008B9012000E0002050B900BF502080F393
:1010D0001188BFF34F8FBFF36F8F00BF00BFFEE7D4
:1010E0000C4960680968084098B1206888B90949C6
:1010F000606809688843606000F0D8F80649606855
:1011000009680844044908602046FFF785FD00F09F
:1011100025FE70BD6C0000206400002000204FF010
:10112000E02108618861064800684FF47A71B0FBDD
:10113000F1F0401E4FF0E021486107200861704740
:101140001800002070B504460025D4B1124800688C
:1011500008B9012000E0002050B900BF502080F302
:101160001188BFF34F8FBFF36F8F00BF00BFFEE743
:1011700000F09CF800212046FFF71AFB00F0EEFD7E
:1011800005463DB94FF0805004490860BFF34F8FCA
:10119000BFF36F8F70BD00005400002004ED00E02D
:1011A000034909680160034909684160704700000C
:1011B00044000020300000200120014908607047F1
:1011C0004000002070B504460D4654B900BF5020C1
:1011D00080F31188BFF34F8FBFF36F8F00BF00BF45
:1011E000FEE70548016818312046FFF7DFFE0121C0
:1011F0002846FFF7DDFA70BD1C00002010B586B050
:1012000000200590049003AA04A905A8FFF7B2FEE8
:101210000022DDE904101346CDE9002102901CA153
:101220001D48039A00F0DAFB1C4908600846006874
:1012300008B1012400E00024012C15D100BF50208A
:1012400080F31188BFF34F8FBFF36F8F00BF4FF054
:10125000FF3013490860012012490860002012493C
:10126000086000F071F810E0601C08B1012000E097
:10127000002050B900BF502080F31188BFF34F8F7A
:10128000BFF36F8F00BF00BFFEE706B010BD0000C8
:1012900049444C4500000000B90A000850000020F5
:1012A0004C00002038000020300000200248006878
:1012B000401C014908607047540000201D48006828
:1012C00018B101201C49086032E000201A4908606A
:1012D0001A480068B0FA80F0C0F11F0101EB8100EC
:1012E000174A52F8200008B1012000E0002050B950
:1012F00000BF502080F31188BFF34F8FBFF36F8F73
:1013000000BF00BFFEE701EB81020D4B03EB820043
:1013100042685268426000F108024368934202D179
:101320004268526842604268D268064B1A6000BF49
:1013300070470000540000204000002034000020CE
:10134000D40200201C0000201CB5524800685249FD
:10135000884201D0012000E0002050B900BF502099
:1013600080F31188BFF34F8FBFF36F8F00BF00BFB3
:10137000FEE7484800684849491E884201D00120DC
:1013800000E0002050B900BF502080F31188BFF367
:101390004F8FBFF36F8F00BF00BFFEE73F49084686
:1013A00000780190FF200A461070084600780090EF
:1013B0009DF8000000F0F0009DF80020904201D15F
:1013C000012000E0002050B900BF502080F31188B8
:1013D000BFF34F8FBFF36F8F00BF00BFFEE79DF8D5
:1013E000000000F050002E4A107007202D4A1060B7
:1013F00009E02C480068401E2A4A10609DF8000051
:101400004006000E00909DF8000000F0800080284B
:10141000EFD024480068C0F10700042801D1012062
:1014200000E0002050B900BF502080F31188BFF3C6
:101430004F8FBFF36F8F00BF00BFFEE719480068F2
:101440000002184A10601046008800F4E060106046
:10145000124A019810700F482030006840F4700064
:101460000C49203108600846006840F07040086070
:10147000FFF754FE00200C490860FEF7BBFE0B4846
:10148000006840F0404009490860FEF79FFE0020D8
:101490001CBD000000ED00E071C20F4100E400E05F
:1014A00074000020780000207000002034EF00E07D
:1014B00010B500BF502080F31188BFF34F8FBFF3EA
:1014C0006F8F00BF00F0F6FA18B14FF0805004495A
:1014D000086000BF002080F3118800BF10BD00002D
:1014E00004ED00E02DE9F84305460E4690460DB1A7
:1014F000012000E0002050B900BF502080F3118887
:10150000BFF34F8FBFF36F8F00BF00BFFEE70EB971
:10151000002701E005FB06F707F14800FFF746FC4E
:1015200004465CB104F14809002084F846004346B3
:101530004A46314628460094FFF7D2FA2046BDE8D5
:10154000F883000070B505460E462C4654B900BF1E
:10155000502080F31188BFF34F8FBFF36F8F00BF10
:1015600000BFFEE7FFF748FDD4E90F12206801FB3A
:10157000020060600020A0632068A060E06B401E55
:10158000226C216800FB0210E060FF2084F8440018
:1015900084F845009EB9206908B9012000E00020C8
:1015A000A8B904F1100000F08DFB80B14FF080501D
:1015B00009490860BFF34F8FBFF36F8F07E004F155
:1015C0001000FFF7E3FC04F12400FFF7DFFCFFF756
:1015D0003DFD012070BD000004ED00E02DE9FF435A
:1015E00083B0064688461D464FF00009344654B97C
:1015F00000BF502080F31188BFF34F8FBFF36F8F70
:1016000000BF00BFFEE7B8F1000F01D1206C08B9A0
:10161000012000E0002050B900BF502080F3118865
:10162000BFF34F8FBFF36F8F00BF00BFFEE7022DE8
:1016300002D1E06B012801D1012000E0002050B967
:1016400000BF502080F31188BFF34F8FBFF36F8F1F
:1016500000BF00BFFEE700F01DFA08B9059808B901
:10166000012000E0002050B900BF502080F3118815
:10167000BFF34F8FBFF36F8F00BF00BFFEE700BF08
:10168000FFF7BAFCA06BE16B884201D3022D28D191
:101690002A4641462046FFF76AF90746606A08B9BC
:1016A000012000E0002068B904F1240000F00AFBEA
:1016B00088B14FF0805032490860BFF34F8FBFF3BD
:1016C0006F8F08E03FB14FF080502D490860BFF3A5
:1016D0004F8FBFF36F8FFFF7B9FC012007B0BDE854
:1016E000F083059818B9FFF7B1FC0020F6E7B9F1CF
:1016F000000F04D101A8FFF753FD4FF00109FFF7D8
:10170000A5FCFFF7D3FDFFF777FC94F94400401CDC
:1017100010B9002084F8440094F94500401C10B929
:10172000002084F84500FFF791FC05A901A800F00E
:10173000DDF8F0B92046FFF7B0FAA0B104F11000CF
:101740000599FFF73FFD2046FFF7F0FA00F006FB92
:10175000002895D14FF0805009490860BFF34F8FA2
:10176000BFF36F8F8CE72046FFF7E0FA00F0F6FA40
:1017700086E72046FFF7DAFA00F0F0FA0020ADE73E
:1017800004ED00E02DE9F74183B005460E464FF029
:1017900000082C4654B900BF502080F31188BFF3D5
:1017A0004F8FBFF36F8F00BF00BFFEE70EB9206CF5
:1017B00008B9012000E0002050B900BF502080F39C
:1017C0001188BFF34F8FBFF36F8F00BF00BFFEE7DD
:1017D00000F060F908B9059808B9012000E0002080
:1017E00050B900BF502080F31188BFF34F8FBFF373
:1017F0006F8F00BF00BFFEE700BFFFF7FDFBA76BC9
:10180000F7B131462046FFF79DF8781EA0632069A6
:1018100008B9012000E0002060B904F1100000F0D8
:1018200051FA38B14FF080502F490860BFF34F8F05
:10183000BFF36F8FFFF70AFC012006B0BDE8F0810F
:10184000059818B9FFF702FC0020F6E7B8F1000F81
:1018500004D101A8FFF7A4FC4FF00108FFF7F6FB45
:10186000FFF724FDFFF7C8FB94F94400401C10B9B2
:10187000002084F8440094F94500401C10B9002071
:1018800084F84500FFF7E2FB05A901A800F02EF857
:10189000F0B92046FFF7F4F9A0B104F1240005994E
:1018A000FFF790FC2046FFF741FA00F057FA0028B6
:1018B000A3D14FF080500C490860BFF34F8FBFF3A6
:1018C0006F8F9AE72046FFF731FA00F047FA94E766
:1018D0002046FFF72BFA00F041FA2046FFF7D0F937
:1018E00000288AD00020A8E704ED00E070B5054686
:1018F0000C4655B900BF502080F31188BFF34F8FBD
:10190000BFF36F8F00BF00BFFEE754B900BF502088
:1019100080F31188BFF34F8FBFF36F8F00BF00BFFD
:10192000FEE7FFF769FB124802686868131A20682F
:10193000401C08B9002617E00E492868096888424B
:1019400004D06868904201D801260DE020689842D2
:1019500007D92068C01A20602846FFF721FC00261E
:1019600002E0002020600126FFF770FB304670BDCA
:1019700030000020440000202DE9FF4F85B0804654
:1019800089461746DDE912ABB800FFF70FFA0646A5
:1019900056B15420FFF70AFA04460CB1266304E05E
:1019A0003046FFF771FB00E000248CB1002084F882
:1019B0005100CDE900ABCDE902403A4649464046E8
:1019C000089BFFF7A0F82046FEF73EFF012501E047
:1019D0004FF0FF35284609B0BDE8F08F2DE9F04FF4
:1019E00085B00746884691469A46DDE90EB6109CBA
:1019F0000EB1012000E0002050B900BF502080F35C
:101A00001188BFF34F8FBFF36F8F00BF00BFFEE79A
:101A10000CB1012000E0002050B900BF502080F33D
:101A20001188BFF34F8FBFF36F8F00BF00BFFEE77A
:101A3000542003900398542801D1012000E0002095
:101A400050B900BF502080F31188BFF34F8FBFF310
:101A50006F8F00BF00BFFEE7B4B1AEB125462C4684
:101A60002E63022085F85100002004A953464A46FF
:101A7000CDE900B1CDE9025041463846FFF743F8C1
:101A80002846FEF7E1FE01E000200490049805B02E
:101A9000BDE8F08F0549096809B9012005E004494E
:101AA000096809B9022000E00020704738000020D2
:101AB000540000202DE9F0414FF000084448006830
:101AC000002877D143480068451C4248056015BB93
:101AD00041480068006808B9012000E0002050B9C2
:101AE00000BF502080F31188BFF34F8FBFF36F8F7B
:101AF00000BF00BFFEE7384807683848006836492D
:101B000008603648076036480068401C3449086061
:101B1000FFF7D2F800BF3348006885423CD300BFCE
:101B20002D480068006808B9012000E0002020B1BD
:101B30004FF0FF302B4908602DE027480068C0684F
:101B4000C4686668B54202D22648066023E0201DBC
:101B5000FFF7E6F9A06A18B104F11800FFF7E0F901
:101B600094F82C10012088401F49096808431E4939
:101B70000860E16A01EB81011C4A02EB8100211D32
:101B8000FFF72EFA1A49E06A0968C96A8842C7D382
:101B90004FF00108C4E700BF15480068C06A00EBB9
:101BA0008000124951F82000012801D94FF00108A6
:101BB00005E0FFE70F480068401C0E4908600E482A
:101BC000006808B14FF001084046BDE8F081000010
:101BD00054000020300000202000002024000020BD
:101BE000440000204C00002034000020D4020020DB
:101BF0001C0000203C0000204000002070B505467D
:101C00002C460026002D55D02B480068844201D177
:101C1000012000E0002050B900BF502080F311885F
:101C2000BFF34F8FBFF36F8F00BF00BFFEE7A06C05
:101C300050B900BF502080F31188BFF34F8FBFF31E
:101C40006F8F00BF00BFFEE7A06C401EA064616CF8
:101C5000E06A88422ED0A06C60BB201DFFF760F9BF
:101C600078B9E06A00EB8000144951F8200040B9CF
:101C700094F82C10012088401149096881431048CC
:101C80000160606CE062E06AC0F10700A06194F856
:101C90002C10012088400A49096808430849086057
:101CA000E16A01EB8101054A02EB8100211DFFF78A
:101CB00097F90126304670BD1C000020D402002098
:101CC0003400002070B50646F068C46854B900BFFF
:101CD000502080F31188BFF34F8FBFF36F8F00BF89
:101CE00000BFFEE704F11800FFF71AF91548006875
:101CF000A8B9201DFFF714F994F82C100120884092
:101D000011490968084310490860E16A01EB810143
:101D10000E4A02EB8100211DFFF762F904E004F195
:101D200018010B48FFF75CF90A49E06A0968C96ABB
:101D3000884204D9012501200749086000E00025F8
:101D4000284670BD5400002034000020D40200203A
:101D5000880300201C0000204000002070B50024F3
:101D600000263648006850B900BF502080F3118823
:101D7000BFF34F8FBFF36F8F00BF00BFFEE7FFF7CA
:101D80003BF92E480068401E2C4908600846006850
:101D900000284FD12A48006800284BD024E0294869
:101DA000C068C46804F11800FFF7BAF8201DFFF7F7
:101DB000B7F894F82C10012088402349096808439B
:101DC00021490860E16A01EB8101204A02EB8100B0
:101DD000211DFFF705F91E49E06A0968C96A8842B2
:101DE00002D301201B4908601648006808B9012089
:101DF00000E000200028D2D00CB1FEF75DFF1648AD
:101E0000056865B100BFFFF755FE10B1012011490B
:101E100008606D1E002DF6D100200F4908600D48A6
:101E2000006838B1012630070C490860BFF34F8FB6
:101E3000BFF36F8FFFF70AF9304670BD54000020E2
:101E40002C0000208803002034000020D402002051
:101E50001C000020400000203C00002004ED00E0B9
:101E6000801E00080000002080000000DC03000845
:101E7000001F00088000002048430000EC03000819
:101E80000000000000000000000000000000000052
:101E900010000000010000000024F4000000000019
:101EA0000000000000000000000000000000000032
:101EB0000000000000000000000000000000000022
:101EC0000000000000000000000000000000000012
:101ED0000000000000000000000000000000000002
:101EE00000000000000000000000000000000000F2
:101EF000AAAAAAAA0000000000000000000000003A
:040000050800019559
:00000001FF
