:020000040800F2
:10000000B80700206D02000839030008010300084A
:1000100035030008E10200086D030008000000003D
:10002000000000000000000000000000AD0100081A
:10003000E502000800000000090200083B03000878
:10004000870200088702000887020008870200086C
:10005000870200088702000887020008870200085C
:10006000870200088702000887020008870200084C
:10007000870200088702000887020008870200083C
:1000800087020008870200088702000800000000BD
:1000900000000000000000000000000087020008CF
:1000A000870200088702000887020008870200080C
:1000B00087020008870200088702000887020008FC
:1000C00087020008870200088702000887020008EC
:1000D000870200088702000887020008000000006D
:1000E000870200088702000887020008000000005D
:1000F000000000000000000000000000870200086F
:10010000000000008702000887020008870200083C
:1001100000000000000000000000000000000000DF
:10012000870200088702000887020008870200088B
:10013000870200080000000000000000000000002E
:10014000000000000000000000000000870200081E
:10015000870200088702000887020008870200085B
:10016000870200088702000800000000000000006D
:10017000000000000000000000000000000000007F
:1001800000000000870200080000000000000000DE
:1001900087020008DFF810D000F090F80048004710
:1001A00025050008AFF30080B80700202C4B196824
:1001B0000868B0E8F04F80F30988BFF36F8F4FF005
:1001C000000080F3118870470000000008480068B4
:1001D000006880F308884FF0000080F3148862B64E
:1001E00061B6BFF34F8FBFF36F8F00DF00BF00BF5B
:1001F00008ED00E0DFF80C00016841F470010160D7
:10020000704700BF88ED00E0EFF30980BFF36F8F08
:10021000134B1A681EF0100F08BF20ED108A20E95A
:10022000F04F106009B44FF0500080F31188BFF315
:100230004F8FBFF36F8F00F095FC4FF0000080F3FD
:10024000118809BC19680868B0E8F04F1EF0100F5B
:1002500008BFB0EC108A80F30988BFF36F8F704736
:1002600010000020EFF3058070470000064880472B
:1002700006480047FEE7FEE7FEE7FEE7FEE7FEE78B
:10028000FEE7FEE7FEE7FEE75103000895010008E0
:1002900030B50B46014600202022012409E021FA56
:1002A00002F59D4205D303FA02F5491B04FA02F553
:1002B0002844151EA2F10102F1DC30BD064C074DA9
:1002C00006E0E06840F0010394E807009847103426
:1002D000AC42F6D3FFF762FFB0100008D010000860
:1002E00000BFFEE770470000034800680349097833
:1002F0000844014908607047000000200800002001
:1003000000BFFEE70A49096801F0010171B108491F
:100310008039096801F0010141B100BF4FF060412F
:1003200009680029FAD04FF0604210707047000051
:10033000800E00E000BFFEE7704710B5FFF7D4FF66
:1003400000F080FD012801D000F006FD10BD000086
:100350000548006840F47000034908604FF00060F1
:10036000014980390860704788ED00E000BFFEE772
:100370000FB4054B10B503A9044A029800F018F811
:1003800010BC5DF814FB000005050008700000209B
:1003900002E008C8121F08C1002AFAD1704770474E
:1003A000002001E001C1121F002AFBD170470000AC
:1003B0002DE9FF4F89B09B460446002506E025281D
:1003C0000BD05A460B999047641C6D1C207800286E
:1003D000F5D10DB02846BDE8F08F0027B8460122C0
:1003E000474900E0074314F8013F203B02FA03F0BD
:1003F0000842F7D120782E2819D114F8010F47F0C0
:1004000004072A280ED06FF02F022078A0F13001C7
:1004100009290CD808EB880102EB410100EB010827
:10042000641CF2E70A98641C50F8048B0A90207848
:100430000028CED0642808D0692806D075281ED0A0
:100440005A460B9990476D1C58E00A994FF00A09DB
:1004500001C90A91002802DA40422D2102E0390543
:1004600004D52B218DF82010012103E0F90704D0D9
:100470002021F7E78A4608AE0DE00021FAE70A9945
:100480004FF00A0901C90A91F7E74946FFF700FF53
:10049000303106F8011D0028F7D1ADEB060000F160
:1004A0002009780701D44FF00108C84502DDA8EB08
:1004B000090000E000208046002706E008A85A4610
:1004C000C05D0B9990476D1C7F1C5745F6DB04E01F
:1004D00030205A460B9990476D1CB8F10001A8F1E5
:1004E0000108F5DC05E016F8010B5A460B99904718
:1004F0006D1CB9F10001A9F10109F4DC641C65E788
:100500000928010070B505460C460548844203D110
:10051000284600F0D5F970BD4FF0FF30FBE7000032
:100520007000002000F0BEFA00BFFEE710B50446E0
:1005300000F012FA23480068401C22490860224853
:10054000006840B9204804600846006801280DD1C1
:1005500000F0FEF80AE01D48006838B91A48006843
:10056000C06AE16A884201D81748046018480068E8
:10057000401C1749086094F82C1001208840154948
:100580000968084313490860E16A01EB8101124AD6
:1005900002EB8100211D00F0D3F900F007FA0B48AF
:1005A000006868B108480068C06AE16A884207D2FA
:1005B0004FF0805009490860BFF34F8FBFF36F8F32
:1005C00010BD000020000020100000202C000020A2
:1005D0003C00002028000020C802002004ED00E0BC
:1005E00010B516E000F0B8F90C48C068C468201DCA
:1005F00000F06CF90A480068401E09490860094883
:100600000068401E0749086000F0D0F9204600F05D
:100610000BF8044800680028E4D110BD90030020C6
:10062000200000201C00002010B5044694F8510062
:1006300030B9206B00F0D8F9204600F0D5F91AE067
:1006400094F85100012803D1204600F0CDF912E0C2
:1006500094F85100022801D1012000E0002050B997
:1006600000BF502080F31188BFF34F8FBFF36F8F0F
:1006700000BF00BFFEE710BD00BFFFF7B1FF074896
:100680000068012807D94FF0805005490860BFF382
:100690004F8FBFF36F8F00F039F9EEE7C8020020EB
:1006A00004ED00E02DE9FF5F81460F469246DDE94B
:1006B0000E6B109CAAF10100216B01EB800828F061
:1006C000070808F0070008B9012000E0002050B931
:1006D00000BF502080F31188BFF34F8FBFF36F8F9F
:1006E00000BF00BFFEE7002507E0795D04F134009C
:1006F0004155785D00B902E06D1C102DF5D300BFA7
:10070000002143200155072E00D30626E6626664C9
:100710000020A064201D00F010F904F1180000F082
:100720000CF92461C6F10700A06164620020E06456
:1007300084F8500049464046039A00F0ABF8206028
:10074000BBF1000F01D0CBF80040BDE8FF9F0000D7
:1007500010B5002407E004EB84010F4A02EB81008E
:1007600000F0DEF8641C072CF5D30C4800F0D8F834
:100770000B4800F0D5F80B4800F0D2F80A4800F01A
:10078000CFF80A4800F0CCF804480949086004484A
:100790000849086010BD0000C80200205403002072
:1007A000680300207C03002090030020A4030020A5
:1007B000140000201800002010B50146164800E083
:1007C000006803688B42FBD30246436813448B42A4
:1007D00004D143684C682344436001460A464B6891
:1007E00013440468A34211D10C4C03682468A3424B
:1007F00008D04B680468646823444B6003681B6836
:100800000B6005E0054B1B680B6001E003680B60A3
:10081000884200D0016010BD4C0000205400002030
:100820000A490968096809B9012100E0002121B1DC
:100830004FF0FF31064A116006E004490968C968B3
:10084000C868034A41681160704700001400002026
:10085000400000200E480068401C08B9012000E05C
:10086000002050B900BF502080F31188BFF34F8F94
:10087000BFF36F8F00BF00BFFEE700BF502080F3C3
:100880001188BFF34F8FBFF36F8F00BF00BFFEE72C
:1008900064000020001F4FF080730360001F21F0F0
:1008A00001030360001F054B036014380260001F42
:1008B0006FF00203036020387047000055080008FD
:1008C00000B503461846FFF71DFD00BD01460A6945
:1008D000D1E901309860D1E901035860506888423D
:1008E00001D188685060002008611068401E1060C7
:1008F00010687047034B0360034B0B608023136049
:100900007047000074000020C800002010B502A04D
:10091000FFF72EFD10BD0000686F6F6B0000000038
:1009200000F1080141604FF0FF31816000F10801E2
:10093000C1600161002101607047002101617047C1
:1009400042684A6093688B6093685960916008615F
:1009500003685B1C0360704700BF502080F3118860
:10096000BFF34F8FBFF36F8F00BF0E480068401C6E
:100970000C49086008460068012812D10A4800683E
:10098000C0B208B9012000E0002050B900BF5020DB
:1009900080F31188BFF34F8FBFF36F8F00BF00BF8D
:1009A000FEE770476400002004ED00E00D48006899
:1009B00050B900BF502080F31188BFF34F8FBFF3B1
:1009C0006F8F00BF00BFFEE706480068401E054964
:1009D00008600846006820B9002080F3118800BF35
:1009E00000BF70476400002070B506463546002EF3
:1009F0003FD0083D2C461F4960680968084008B18F
:100A0000012000E0002050B900BF502080F3118881
:100A1000BFF34F8FBFF36F8F00BF00BFFEE72068AB
:100A200008B9012000E0002050B900BF502080F339
:100A30001188BFF34F8FBFF36F8F00BF00BFFEE77A
:100A40000C4960680968084098B1206888B909496C
:100A5000606809688843606000F07CF80649606857
:100A600009680844044908602046FFF7A5FE00F025
:100A70009DFA70BD600000205800002000204FF05B
:100A8000E02108618861064800684FF47A71B0FB84
:100A9000F1F0401E4FF0E0214861072008617047E7
:100AA0000C00002010B586B000200590049003AA29
:100AB00004A905A8FFF71EFF0022DDE90410134674
:100AC000CDE9002102901CA11D48039A00F05EF9B7
:100AD0001C4908600846006808B1012400E00024B1
:100AE000012C15D100BF502080F31188BFF34F8F28
:100AF000BFF36F8F00BF4FF0FF3013490860012034
:100B00001249086000201249086000F071F810E0F6
:100B1000601C08B1012000E0002050B900BF502047
:100B200080F31188BFF34F8FBFF36F8F00BF00BFFB
:100B3000FEE706B010BD000049444C45000000002F
:100B40007906000844000020400000202C0000200E
:100B50002400002002480068401C014908607047DA
:100B6000480000201D48006818B101201C49086099
:100B700032E000201A4908601A480068B0FA80F094
:100B8000C0F11F0101EB8100174A52F8200008B1A3
:100B9000012000E0002050B900BF502080F31188F0
:100BA000BFF34F8FBFF36F8F00BF00BFFEE701EBB6
:100BB00081020D4B03EB820042685268426000F1F3
:100BC00008024368934202D1426852684260426818
:100BD000D268064B1A6000BF704700004800002032
:100BE0003400002028000020C8020020100000204F
:100BF0001CB5524800685249884201D0012000E0EB
:100C0000002050B900BF502080F31188BFF34F8FF0
:100C1000BFF36F8F00BF00BFFEE748480068484938
:100C2000491E884201D0012000E0002050B900BFD9
:100C3000502080F31188BFF34F8FBFF36F8F00BF39
:100C400000BFFEE73F49084600780190FF200A46B2
:100C500010700846007800909DF8000000F0F00049
:100C60009DF80020904201D1012000E0002050B901
:100C700000BF502080F31188BFF34F8FBFF36F8FF9
:100C800000BF00BFFEE79DF8000000F050002E4AB4
:100C9000107007202D4A106009E02C480068401EA3
:100CA0002A4A10609DF800004006000E00909DF852
:100CB000000000F080008028EFD024480068C0F1D8
:100CC0000700042801D1012000E0002050B900BF36
:100CD000502080F31188BFF34F8FBFF36F8F00BF99
:100CE00000BFFEE7194800680002184A106010466D
:100CF000008800F4E0601060124A019810700F48FC
:100D00002030006840F470000C492031086008462B
:100D1000006840F070400860FFF7B0FE00200C490A
:100D20000860FFF767FA0B48006840F04040094947
:100D30000860FFF74BFA00201CBD000000ED00E04A
:100D400071C20F4100E400E0680000206C00002048
:100D50006400002034EF00E010B500BF502080F3A5
:100D60001188BFF34F8FBFF36F8F00BF00F07AF889
:100D700018B14FF080500449086000BF002080F394
:100D8000118800BF10BD000004ED00E02DE9F04F18
:100D900085B00746884691469A46DDE90EB6109C16
:100DA0000EB1012000E0002050B900BF502080F3B8
:100DB0001188BFF34F8FBFF36F8F00BF00BFFEE7F7
:100DC0000CB1012000E0002050B900BF502080F39A
:100DD0001188BFF34F8FBFF36F8F00BF00BFFEE7D7
:100DE000542003900398542801D1012000E00020F2
:100DF00050B900BF502080F31188BFF34F8FBFF36D
:100E00006F8F00BF00BFFEE7B4B1AEB125462C46E0
:100E10002E63022085F85100002004A953464A465B
:100E2000CDE900B1CDE9025041463846FFF73AFC22
:100E30002846FFF77BFB01E000200490049805B0F2
:100E4000BDE8F08F0549096809B9012005E00449AA
:100E5000096809B9022000E0002070472C0000203A
:100E6000480000202DE9F0414FF000084448006898
:100E7000002877D143480068451C4248056015BBEF
:100E800041480068006808B9012000E0002050B91E
:100E900000BF502080F31188BFF34F8FBFF36F8FD7
:100EA00000BF00BFFEE73848076838480068364989
:100EB00008603648076036480068401C34490860BE
:100EC000FFF7AEFC00BF3348006885423CD300BF4B
:100ED0002D480068006808B9012000E0002020B11A
:100EE0004FF0FF302B4908602DE027480068C068AC
:100EF000C4686668B54202D22648066023E0201D19
:100F0000FFF7E4FCA06A18B104F11800FFF7DEFC5B
:100F100094F82C10012088401F49096808431E4995
:100F20000860E16A01EB81011C4A02EB8100211D8E
:100F3000FFF706FD1A49E06A0968C96A8842C7D303
:100F40004FF00108C4E700BF15480068C06A00EB15
:100F50008000124951F82000012801D94FF0010802
:100F600005E0FFE70F480068401C0E4908600E4886
:100F7000006808B14FF001084046BDE8F08100006C
:100F80004800002024000020140000201800002049
:100F9000380000204000002028000020C802002067
:100FA00010000020300000203400002070B5002424
:100FB00000263648006850B900BF502080F31188E1
:100FC000BFF34F8FBFF36F8F00BF00BFFEE7FFF788
:100FD000C3FC2E480068401E2C4908600846006883
:100FE00000284FD12A48006800284BD024E0294827
:100FF000C068C46804F11800FFF768FC201DFFF703
:1010000065FC94F82C1001208840234909680843A6
:1010100021490860E16A01EB8101204A02EB81006D
:10102000211DFFF78DFC1E49E06A0968C96A8842E4
:1010300002D301201B4908601648006808B9012046
:1010400000E000200028D2D00CB1FFF7E9FB1648E1
:10105000056865B100BFFFF705FF10B10120114918
:1010600008606D1E002DF6D100200F4908600D4864
:10107000006838B1012630070C490860BFF34F8F74
:10108000BFF36F8FFFF792FC304670BD4800002021
:10109000200000207C03002028000020C80200203F
:1010A00010000020340000203000002004ED00E09B
:1010B000D010000800000020740000009003000819
:1010C000441100087400002044070000A003000839
:1010D0000000000010000000010000000024F400E7
:1010E0000000000000000000000000000000000000
:1010F00000000000000000000000000000000000F0
:1011000000000000000000000000000000000000DF
:1011100000000000000000000000000000000000CF
:1011200000000000000000000000000000000000BF
:1011300000000000AAAAAAAA000000000000000007
:0411400000000000AB
:040000050800019559
:00000001FF
